:020000040800F2
:1000000000500020490D0008750C00087B0C00080A
:10001000810C0008870C00088D0C0008000000000F
:10002000000000000000000000000000930C000829
:100030009F0C000800000000AB0C0008B70C000883
:10004000910D0008910D0008910D0008910D000818
:10005000910D0008910D0008910D0008910D000808
:10006000910D0008910D0008910D0008910D0008F8
:10007000910D0008910D0008910D0008910D0008E8
:10008000910D0008910D0008910D0008910D0008D8
:10009000910D0008910D0008910D0008910D0008C8
:1000A000910D0008C50C0008910D0008910D000885
:1000B000910D0008910D0008910D0008910D0008A8
:1000C000910D0008910D0008910D0008910D000898
:1000D000910D0008010D0008150D0008290D0008FC
:1000E000910D0008910D0008910D0008000000001E
:1000F0000000000000000000000000000000000000
:0C01000000000000000000005FF808F1A3
:10010C0010B5054C237833B9044B13B10448AFF345
:10011C0000800123237010BD180000200000000097
:10012C009033000808B5034B1BB103490348AFF3E8
:10013C00008008BD000000001C0000209033000867
:10014C0080B582B000AF00F01FFE00F06DFA00F039
:10015C00A5FB00F0B9FA00F017FB00F043FB00F030
:10016C006FFB9C4801F036FEFB1D012219469A4894
:10017C0002F075FA0346002B0CBF01230023DBB2FF
:10018C00002B04D0FB791946944803F05BF8BB1D97
:10019C0001221946924802F062FA0346002B0CBF6A
:1001AC0001230023DBB2002B04D0BB7919468D4808
:1001BC0003F048F87B1D012219468B4802F04FFAD8
:1001CC000346002B0CBF01230023DBB2002B04D011
:1001DC007B791946854803F035F8854B1B68B3F5D8
:1001EC00C87F8CBF01230023DBB2002B44D0804B93
:1001FC0000221A607F4B1B78002B31D07E4B1B7872
:10020C00002B1ED17D4B1B78002B07D07C4B1B7811
:10021C00002B03D17B4B1B78002B0BD0794B1B781D
:10022C00002B0ED0764B1B78002B0AD0764B1B780C
:10023C00002B06D101224FF40051744801F048F90B
:10024C000EE06F4B01221A7000224FF400516F48E0
:10025C0001F03EF901224FF480416C4801F038F96D
:10026C00644B00221A70654B00221A70654B0022F9
:10027C001A70654B00221A70654802F044FF034661
:10028C00002B07D0624802F025FF0346002B01D05B
:10029C00012300E00023002B1DD0554B00221A60D7
:1002AC00544B1B78002B03D1524B01221A7012E0D5
:1002BC00524B1B78002B03D1504B01221A700AE0D1
:1002CC00504B1B78002B03D14E4B01221A7002E0CD
:1002DC004D4B01221A704F4B1B68642B8CBF0123B2
:1002EC000023DBB2002B11D04A4B00221A600122F2
:1002FC004949394802F06FF901224849384802F05F
:10030C006AF901224649384802F065F9334802F08F
:10031C003AFF0346002B0DD0324802F034FF03465F
:10032C00002B07D0314802F02EFF0346002B01D0E2
:10033C00012300E00023002B3FF416AF274802F006
:10034C0070FF0346002B0BD0264802F06AFF0346D1
:10035C00002B05D0254802F064FF0346002B01D189
:10036C00012300E00023002B00F0F4801B4802F076
:10037C00BDFF03461A462B4B1B789A4213D01948E3
:10038C0002F0B4FF03461A46274B1B789A420AD058
:10039C00164802F0ABFF03461A46244B1B789A42D0
:1003AC0001D0012300E00023002B41D01F4B1B7810
:1003BC0019460A4802F0A6FF1B4B1B781946094840
:1003CC0002F0A0FF174B1B781946084802F09AFF61
:1003DC00CAE600BF00010020340000206C010020A0
:1003EC0078000020C0010020BC0000201402002076
:1003FC00640100205E0100205D0100205F010020EF
:10040C005C0100206001002061010020000C014013
:10041C00480100206801002000000020040000209A
:10042C0008000020150000201600002017000020F6
:10043C00744802F05BFF03461A46734B1B789A42D2
:10044C000CBF01230023DBB2002B2DD06F4B1B788C
:10045C0019466C4802F056FF6D4802F047FF034600
:10046C001A466A4B1B789A420CBF01230023DBB25D
:10047C00002B0CD0644B1B781946654802F042FFE8
:10048C00644B1B781946644802F03CFF6CE65E4BEB
:10049C001B781946604802F035FF5E4B1B781946F5
:1004AC005B4802F02FFF5FE6594802F01FFF03463E
:1004BC001A46554B1B789A4208D1574802F016FF42
:1004CC0003461A46514B1B789A4211D0504802F001
:1004DC000DFF03461A464F4B1B789A420AD14E48E1
:1004EC0002F004FF03461A46474B1B789A4201D18F
:1004FC00012300E00023002B3FF436AE464802F007
:10050C00F5FE03461946424802F0FCFE404802F054
:10051C00EDFE03461946404802F0F4FE3E4802F058
:10052C00E5FE03461A46394B1B789A420CBF012351
:10053C000023DBB2002B06D0364B1B781946314812
:10054C0002F0E0FE10E6314B1B7819462D4802F004
:10055C00D9FE09E62E4802F050FE0346002B0DD0C2
:10056C00284802F04AFE0346002B07D02A4802F026
:10057C0044FE0346002B01D0012300E00023002B96
:10058C0008D0264B01221A7001222021244800F0A9
:10059C009FFFE9E51E4802F007FE0346002B05D03D
:1005AC001B4802F016FE0346002B17D1154802F02B
:1005BC00FBFD0346002B05D0124802F00AFE034651
:1005CC00002B0BD1144802F0EFFD0346002B07D093
:1005DC00114802F0FEFD0346002B01D0012300E080
:1005EC000023002B3FF4C0AD0E4B01221A700022E9
:1005FC0020210B4800F06CFF01224021084800F03C
:10060C0067FFB1E5C0010020160000201700002094
:10061C006C01002015000020140200205D01002058
:10062C00000801405C01002080B590B000AF07F1DC
:10063C00180328220021184602F09CFE3B1D0022C4
:10064C001A605A609A60DA601A610123BB614FF438
:10065C008033FB6100233B620123BB6202237B637B
:10066C004FF48033BB634FF4E013FB6307F11803C3
:10067C00184600F045FF0346002B14BF012300234E
:10068C00DBB2002B01D000F077F90F237B60022343
:10069C00BB600023FB604FF480633B6100237B61F4
:1006AC003B1D0221184601F0ABF90346002B14BF89
:1006BC0001230023DBB2002B01D000F05DF900BF59
:1006CC004037BD4680BD000080B586B000AF07F155
:1006DC00080300221A605A609A60DA603B460022D6
:1006EC001A605A60264B274A1A60254B40F2CF22DB
:1006FC005A60234B00229A60214B6422DA60204B13
:10070C0000221A611E4B00225A611D4B00229A6175
:10071C001B4801F00FFB0346002B14BF01230023E1
:10072C00DBB2002B01D000F027F94FF48053BB60F3
:10073C0007F108031946124801F0A6FC0346002BEA
:10074C0014BF01230023DBB2002B01D000F014F9FD
:10075C0000233B6000237B603B461946084801F0B0
:10076C007DFE0346002B14BF01230023DBB2002BBC
:10077C0001D000F001F900BF1837BD4680BD00BFA5
:10078C0000010020002C014080B500AF134B144A2F
:10079C001A60124B4FF416525A60104B00229A609A
:1007AC000E4B0022DA600D4B00221A610B4B0C220F
:1007BC005A610A4B00229A61084B0022DA61074801
:1007CC0001F0BCFE0346002B14BF01230023DBB257
:1007DC00002B01D000F0D0F800BF80BD3400002009
:1007EC000038014080B500AF134B144A1A60124B0D
:1007FC004FF416525A60104B00229A600E4B002296
:10080C00DA600D4B00221A610B4B0C225A610A4B19
:10081C0000229A61084B0022DA61074801F08EFE33
:10082C000346002B14BF01230023DBB2002B01D0A5
:10083C0000F0A2F800BF80BD78000020004400400A
:10084C0080B500AF134B144A1A60124B4FF416527A
:10085C005A60104B00229A600E4B0022DA600D4B4E
:10086C0000221A610B4B0C225A610A4B00229A612E
:10087C00084B0022DA61074801F060FE0346002BAA
:10088C0014BF01230023DBB2002B01D000F074F85D
:10089C0000BF80BDBC0000200048004080B588B07F
:1008AC0000AF07F1100300221A605A609A60DA60F8
:1008BC002E4B9B692D4A43F0200393612B4B9B6974
:1008CC0003F02003FB60FB68284B9B69274A43F02D
:1008DC0004039361254B9B6903F00403BB60BB6865
:1008EC00224B9B69214A43F0080393611F4B9B6980
:1008FC0003F008037B607B68002260211C4800F039
:10090C00E7FD00224FF4C0411A4800F0E1FD6023DE
:10091C003B6101237B610023BB610223FB6107F177
:10092C0010031946124800F04FFC4FF480533B6102
:10093C0000237B610123BB6107F1100319460D48AD
:10094C0000F042FC4FF4C0433B6101237B61002368
:10095C00BB610223FB6107F110031946054800F047
:10096C0033FC00BF2037BD4680BD00BF00100240E5
:10097C0000080140000C014080B400AF72B600BF0B
:10098C00FEE7000080B582B000AF786039607B680C
:10099C00012B1DD13B684FF6FF72934218D10A23ED
:1009AC004FF480520C490D4802F072FA0C4B1B7834
:1009BC0019460C4802F0C0FB0B4B1B7819460B4830
:1009CC0002F0BAFB0A4B1B7819460A4802F0B4FB3A
:1009DC0000BF0837BD4680BD000C01404801002017
:1009EC00150000206C01002016000020C001002022
:1009FC00170000201402002080B500AF4FF6FF71E5
:100A0C000120FFF7BFFF80BD80B485B000AF154B50
:100A1C009B69144A43F001039361124B9B6903F0E9
:100A2C000103BB60BB680F4BDB690E4A43F080537C
:100A3C00D3610C4BDB6903F080537B607B680A4B02
:100A4C005B68FB60FB6823F0E063FB60FB6843F0D2
:100A5C008063FB60044AFB68536000BF1437BD46DB
:100A6C0080BC7047001002400000014080B58CB083
:100A7C0000AF786007F1200300221A605A609A6078
:100A8C00DA607B681B685F4A93423AD15E4B9B6984
:100A9C005D4A43F4804393615B4B9B6903F4804351
:100AAC00FB61FB69584B9B69574A43F00403936104
:100ABC00554B9B6903F00403BB61BB694FF4007396
:100ACC003B6202237B620323FB6207F1200319467E
:100ADC004E4800F079FB4FF480633B6200237B624D
:100AEC000023BB6207F120031946484800F06CFB59
:100AFC0000220021252000F080FA252000F099FA30
:100B0C007CE07B681B68424A934238D13E4BDB69E0
:100B1C003D4A43F40033D3613B4BDB6903F40033B0
:100B2C007B617B69384B9B69374A43F004039361C3
:100B3C00354B9B6903F004033B613B6904233B6227
:100B4C0002237B620323FB6207F1200319462F4823
:100B5C0000F03AFB08233B6200237B620023BB625C
:100B6C0007F120031946294800F02EFB0022002132
:100B7C00262000F042FA262000F05BFA3EE07B686B
:100B8C001B68244A934239D11F4BDB691E4A43F43C
:100B9C008023D3611C4BDB6903F48023FB60FB686F
:100BAC00194B9B69184A43F008039361164B9B69D8
:100BBC0003F00803BB60BB684FF480633B62022305
:100BCC007B620323FB6207F120031946124800F0F5
:100BDC00FBFA4FF400633B6200237B620023BB6291
:100BEC0007F1200319460C4800F0EEFA0022002110
:100BFC00272000F002FA272000F01BFA00BF303744
:100C0C00BD4680BD00380140001002400008014084
:100C1C000044004000480040000C014080B584B006
:100C2C0000AF78607B681B680D4A934213D10D4B63
:100C3C009B690C4A43F4006393610A4B9B6903F470
:100C4C000063FB60FB6800220021192000F0D5F93D
:100C5C00192000F0EEF900BF1037BD4680BD00BF73
:100C6C00002C01400010024080B400AFFEE780B4BD
:100C7C0000AFFEE780B400AFFEE780B400AFFEE744
:100C8C0080B400AFFEE780B400AF00BFBD4680BCAF
:100C9C00704780B400AF00BFBD4680BC704780B4C5
:100CAC0000AF00BFBD4680BC704780B500AF00F000
:100CBC00B1F800BF80BD000080B500AF094B1B68C8
:100CCC000133084A1360084B1B780133DAB2064B28
:100CDC001A70064802F0A4F9054801F0CDF800BFDF
:100CEC0080BD00BF64010020680100204801002085
:100CFC000001002080B500AF024801F0E1FC00BF0C
:100D0C0080BD00BF3400002080B500AF024801F068
:100D1C00D7FC00BF80BD00BF7800002080B500AFBD
:100D2C00024801F0CDFC00BF80BD00BFBC0000201C
:100D3C0080B400AF00BFBD4680BC70470C480D4965
:100D4C000D4A002302E0D458C4500433C4188C421A
:100D5C00F9D30A4A0A4C002301E013600432A24280
:100D6C00FBD3FFF7E5FF02F0E1FAFFF7E9F9704773
:100D7C000000002018000020DC33000818000020C0
:100D8C006C020020FEE7000080B500AF084B1B682A
:100D9C00074A43F010031360032000F023F90020EE
:100DAC0000F008F8FFF730FE0023184680BD00BFA6
:100DBC000020024080B582B000AF7860124B1A68F8
:100DCC00124B1B7819464FF47A73B3FBF1F3B2FB59
:100DDC00F3F3184600F03BF90346002B01D0012336
:100DEC000EE07B680F2B0AD8002279684FF0FF3099
:100DFC0000F003F9064A7B681360002300E001232E
:100E0C0018460837BD4680BD0C0000201400002099
:100E1C001000002080B400AF054B1B781A46054B20
:100E2C001B681344034A136000BFBD4680BC704767
:100E3C00140000206802002080B400AF024B1B6835
:100E4C001846BD4680BC70476802002080B485B04F
:100E5C0000AF78607B6803F00703FB600C4BDB682A
:100E6C00BB60BA684FF6FF031340BB60FB681A0205
:100E7C00BB68134343F0BF6343F40033BB60044AC5
:100E8C00BB68D36000BF1437BD4680BC704700BF41
:100E9C0000ED00E080B400AF044BDB681B0A03F0EC
:100EAC0007031846BD4680BC704700BF00ED00E04C
:100EBC0080B483B000AF0346FB7197F90730002B69
:100ECC000BDBFB7903F01F02064997F907305B092E
:100EDC00012000FA02F241F8232000BF0C37BD4676
:100EEC0080BC704700E100E080B483B000AF0346E3
:100EFC003960FB7197F90730002B0ADB3B68DAB2DB
:100F0C000C4997F907301201D2B20B4483F8002335
:100F1C000AE03B68DAB20849FB7903F00F03043BA3
:100F2C001201D2B20B441A7600BF0C37BD4680BCFE
:100F3C00704700BF00E100E000ED00E080B489B034
:100F4C0000AFF860B9607A60FB6803F00703FB61DF
:100F5C00FB69C3F10703042B28BF0423BB61FB69A6
:100F6C000433062B02D9FB69033B00E000237B61B1
:100F7C004FF0FF32BB6902FA03F3DA43BB681A4045
:100F8C007B699A404FF0FF317B6901FA03F3D94337
:100F9C007B680B40134318462437BD4680BC704712
:100FAC0080B582B000AF78607B68013BB3F1807F85
:100FBC0001D301230FE00A4A7B68013B53600F21E8
:100FCC004FF0FF30FFF790FF054B00229A60044B67
:100FDC0007221A60002318460837BD4680BD00BFA3
:100FEC0010E000E080B582B000AF78607868FFF761
:100FFC002DFF00BF0837BD4680BD80B586B000AF61
:10100C000346B9607A60FB7300237B61FFF742FFF4
:10101C0078617A68B9687869FFF790FF024697F9AA
:10102C000F3011461846FFF75FFF00BF1837BD465B
:10103C0080BD80B582B000AF0346FB7197F90730D5
:10104C001846FFF735FF00BF0837BD4680BD80B599
:10105C0082B000AF78607868FFF7A2FF03461846AD
:10106C000837BD4680BD80B485B000AF78600023E2
:10107C00FB737B6893F82130022B08D07B68042229
:10108C009A637B68002283F82020012320E07B6890
:10109C001B681A687B681B6822F00E021A607B685A
:1010AC001B681A687B681B6822F001021A607B6857
:1010BC001A6C7B68DB6B012101FA02F25A607B68C7
:1010CC00012283F821207B68002283F82020FB7BFF
:1010DC0018461437BD4680BC7047000080B584B0FC
:1010EC0000AF78600023FB737B6893F82130022BF0
:1010FC0005D07B6804229A630123FB7351E07B6863
:10110C001B681A687B681B6822F00E021A607B68E9
:10111C001B681A687B681B6822F001021A607B68E6
:10112C001B68224A934229D07B681B68204A934251
:10113C0022D07B681B681F4A93421AD07B681B68BD
:10114C001D4A934212D07B681B681C4A93420AD0FA
:10115C007B681B681A4A934202D14FF480130EE04D
:10116C004FF080730BE04FF4803308E04FF4805362
:10117C0005E04FF4807302E0102300E00123114AD4
:10118C0053607B68012283F821207B68002283F85E
:10119C0020207B685B6B002B03D07B685B6B7868D3
:1011AC009847FB7B18461037BD4680BD08000240AF
:1011BC001C00024030000240440002405800024033
:1011CC006C0002400000024080B48BB000AF78602D
:1011DC00396000237B6200233B6269E101227B6A58
:1011EC0002FA03F3FB613B681B68FA691340BB61AD
:1011FC00BA69FB699A4240F058813B685B689A4A2D
:10120C0093425ED0984A934275D8984A934258D0EC
:10121C00964A93426FD8964A934252D0944A93423C
:10122C0069D8944A93424CD0924A934263D8924ADA
:10123C00934246D0904A93425DD8122B2AD8122B57
:10124C0059D801A252F823F0CF120008A9120008B5
:10125C00BB120008FD12000803130008031300085A
:10126C0003130008031300080313000803130008FA
:10127C0003130008031300080313000803130008EA
:10128C00031300080313000803130008B11200082D
:10129C00C5120008794A934213D02CE03B68DB68F6
:1012AC003B6229E03B68DB6804333B6224E03B682B
:1012BC00DB6808333B621FE03B68DB680C333B6246
:1012CC001AE03B689B68002B02D104233B6213E0BD
:1012DC003B689B68012B05D108233B627B68FA694C
:1012EC001A6109E008233B627B68FA695A6103E0E2
:1012FC0000233B6200E000BFBB69FF2B01D87B6879
:10130C0001E07B6804337B61BB69FF2B02D87B6AED
:10131C009B0002E07B6A083B9B003B617B691A687F
:10132C000F213B6901FA03F3DB431A40396A3B692D
:10133C0001FA03F31A437B691A603B685B6803F09C
:10134C008053002B00F0B1804D4B9B694C4A43F00D
:10135C00010393614A4B9B6903F00103BB60BB68BB
:10136C00484A7B6A9B08023352F82330FB607B6A45
:10137C0003F003039B000F2202FA03F3DB43FA682A
:10138C001340FB607B68404A934213D07B683F4A12
:10139C0093420DD07B683E4A934207D07B683D4A0E
:1013AC00934201D1032306E0042304E0022302E06C
:1013BC00012300E000237A6A02F0030292009340BA
:1013CC00FA681343FB602F497B6A9B080233FA6867
:1013DC0041F823203B685B6803F48033002B06D074
:1013EC002D4B1A682C49BB6913430B6006E02A4B42
:1013FC001A68BB69DB43284913400B603B685B6888
:10140C0003F40033002B06D0234B5A682249BB69E6
:10141C0013434B6006E0204B5A68BB69DB431E4903
:10142C0013404B603B685B6803F48013002B06D0C1
:10143C00194B9A681849BB6913438B6006E0164B2D
:10144C009A68BB69DB43144913408B603B685B684B
:10145C0003F40013002B21D00F4BDA680E49BB6943
:10146C001343CB6021E000BF0000321000003110AC
:10147C0000002210000021100000121000001110BA
:10148C00001002400000014000080140000C014027
:10149C000010014000140140000401400B4BDA68BD
:1014AC00BB69DB4309491340CB607B6A01337B6228
:1014BC003B681A687B6A22FA03F3002B7FF48EAE2A
:1014CC0000BF00BF2C37BD4680BC704700040140F4
:1014DC0080B483B000AF78600B467B8013467B7082
:1014EC007B78002B03D07A887B681A6103E07B88B9
:1014FC001A047B681A6100BF0C37BD4680BC70476C
:10150C0080B586B000AF78607B68002B01D10123D9
:10151C006CE27B681B6803F00103002B00F08780F2
:10152C00924B5B6803F00C03042B0CD08F4B5B6865
:10153C0003F00C03082B12D18C4B5B6803F4803343
:10154C00B3F5803F0BD1894B1B6803F40033002BA0
:10155C006CD07B685B68002B68D1012346E27B680A
:10156C005B68B3F5803F06D1804B1B687F4A43F420
:10157C00803313602EE07B685B68002B0CD17B4BB7
:10158C001B687A4A23F480331360784B1B68774AC4
:10159C0023F4802313601DE07B685B68B3F5A02FF8
:1015AC000CD1724B1B68714A43F4802313606F4B50
:1015BC001B686E4A43F4803313600BE06B4B1B6863
:1015CC006A4A23F480331360684B1B68674A23F420
:1015DC00802313607B685B68002B13D0FFF72CFC17
:1015EC00386108E0FFF728FC02463B69D31A642BEC
:1015FC0001D90323FAE15D4B1B6803F40033002B84
:10160C00F0D014E0FFF718FC386108E0FFF714FC89
:10161C0002463B69D31A642B01D90323E6E1534BF1
:10162C001B6803F40033002BF0D100E000BF7B6893
:10163C001B6803F00203002B63D04C4B5B6803F078
:10164C000C03002B0BD0494B5B6803F00C03082BED
:10165C001CD1464B5B6803F48033002B16D1434BF3
:10166C001B6803F00203002B05D07B681B69012B60
:10167C0001D00123BAE13D4B1B6823F0F8027B68D3
:10168C005B69DB00394913430B603AE07B681B69EB
:10169C00002B20D0364B01221A60FFF7CDFB3861AE
:1016AC0008E0FFF7C9FB02463B69D31A022B01D9AC
:1016BC0003239BE12D4B1B6803F00203002BF0D09E
:1016CC002A4B1B6823F0F8027B685B69DB00274917
:1016DC0013430B6015E0264B00221A60FFF7ACFB9E
:1016EC00386108E0FFF7A8FB02463B69D31A022BCE
:1016FC0001D903237AE11D4B1B6803F00203002B75
:10170C00F0D17B681B6803F00803002B3AD07B6890
:10171C009B69002B19D0174B01221A60FFF78CFB29
:10172C00386108E0FFF788FB02463B69D31A022BAD
:10173C0001D903235AE10D4B5B6A03F00203002B22
:10174C00F0D0012000F0D8FA1CE00A4B00221A60FD
:10175C00FFF772FB38610FE0FFF76EFB02463B6947
:10176C00D31A022B08D9032340E100BF001002401A
:10177C0000004242800442429E4B5B6A03F002032B
:10178C00002BE9D17B681B6803F00403002B00F0ED
:10179C00A6800023FB75974BDB6903F08053002B6D
:1017AC000DD1944BDB69934A43F08053D361914B39
:1017BC00DB6903F08053BB60BB680123FB758E4B68
:1017CC001B6803F48073002B18D18B4B1B688A4A5F
:1017DC0043F480731360FFF72FFB386108E0FFF7C9
:1017EC002BFB02463B69D31A642B01D90323FDE082
:1017FC00814B1B6803F48073002BF0D07B68DB6893
:10180C00012B06D17B4B1B6A7A4A43F0010313620E
:10181C002DE07B68DB68002B0CD1764B1B6A754A7C
:10182C0023F001031362734B1B6A724A23F0040307
:10183C0013621CE07B68DB68052B0CD16D4B1B6ABB
:10184C006C4A43F0040313626A4B1B6A694A43F007
:10185C00010313620BE0674B1B6A664A23F001031A
:10186C001362644B1B6A634A23F0040313627B68A4
:10187C00DB68002B15D0FFF7DFFA38610AE0FFF7C1
:10188C00DBFA02463B69D31A41F28832934201D902
:10189C000323ABE0574B1B6A03F00203002BEED083
:1018AC0014E0FFF7C9FA38610AE0FFF7C5FA0246FF
:1018BC003B69D31A41F28832934201D9032395E054
:1018CC004C4B1B6A03F00203002BEED1FB7D012B6A
:1018DC0005D1484BDB69474A23F08053D3617B68C1
:1018EC00DB69002B00F08180424B5B6803F00C033A
:1018FC00082B61D07B68DB69022B46D13F4B002261
:10190C001A60FFF799FA386108E0FFF795FA02467A
:10191C003B69D31A022B01D9032367E0354B1B68B3
:10192C0003F00073002BF0D17B681B6AB3F5803F8A
:10193C0008D1304B5B6823F400327B689B682D49DF
:10194C0013434B602B4B5B6823F474127B68196A4E
:10195C007B685B6A0B43274913434B60274B01227F
:10196C001A60FFF769FA386108E0FFF765FA02467A
:10197C003B69D31A022B01D9032337E01D4B1B689B
:10198C0003F00073002BF0D02FE01C4B00221A60E8
:10199C00FFF752FA386108E0FFF74EFA02463B694E
:1019AC00D31A022B01D9032320E0124B1B6803F03E
:1019BC000073002BF0D118E07B68DB69012B01D19F
:1019CC00012313E00B4B5B68FB60FB6803F4803274
:1019DC007B681B6A9A4206D1FB6803F470127B6821
:1019EC005B6A9A4201D0012300E0002318461837A5
:1019FC00BD4680BD001002400070004060004242B5
:101A0C0080B584B000AF786039607B68002B01D161
:101A1C000123D0E06A4B1B6803F007033A689A4233
:101A2C0010D9674B1B6823F0070265493B681343C9
:101A3C000B60634B1B6803F007033A689A4201D0B2
:101A4C000123B8E07B681B6803F00203002B20D055
:101A5C007B681B6803F00403002B05D0594B5B68B3
:101A6C00584A43F4E06353607B681B6803F0080337
:101A7C00002B05D0534B5B68524A43F460535360C0
:101A8C00504B5B6823F0F0027B689B684D49134315
:101A9C004B607B681B6803F00103002B40D07B6814
:101AAC005B68012B07D1474B1B6803F40033002BF9
:101ABC0015D101237FE07B685B68022B07D1414B7A
:101ACC001B6803F00073002B09D1012373E03D4B1D
:101ADC001B6803F00203002B01D101236BE0394B8F
:101AEC005B6823F003027B685B68364913434B60E9
:101AFC00FFF7A2F9F8600AE0FFF79EF90246FB68CF
:101B0C00D31A41F28832934201D9032353E02D4B6F
:101B1C005B6803F00C027B685B689B009A42EBD11C
:101B2C00274B1B6803F007033A689A4210D2244BE8
:101B3C001B6823F0070222493B6813430B60204BC0
:101B4C001B6803F007033A689A4201D0012332E084
:101B5C007B681B6803F00403002B08D0194B5B68EF
:101B6C0023F4E0627B68DB68164913434B607B68A7
:101B7C001B6803F00803002B09D0124B5B6823F49D
:101B8C0060527B681B69DB000E4913434B6000F00D
:101B9C0021F802460B4B5B681B0903F00F030A4943
:101BAC00CB5C22FA03F3094A1360094B1B681846F5
:101BBC00FFF700F9002318461037BD4680BD00BF63
:101BCC000020024000100240B83300080C00002036
:101BDC001000002090B48AB000AF2A4B3C1D0FCBF4
:101BEC0084E80F0040F201233B800023FB610023BB
:101BFC00BB6100237B6200237B6100233B62224B91
:101C0C005B68FB61FB6903F00C03042B02D0082B0F
:101C1C0003D02DE01D4B3B622DE0FB699B0C03F0C8
:101C2C000F0307F12802134413F8243C7B61FB6972
:101C3C0003F48033002B13D0134B5B685B0C03F065
:101C4C00010307F12802134413F8283CBB617B699C
:101C5C000E4A02FB03F2BB69B2FBF3F37B6204E0B6
:101C6C007B690B4A02FB03F37B627B6A3B6202E0FB
:101C7C00064B3B6200BF3B6A18462837BD4690BCFA
:101C8C00704700BFA83300080010024000127A0011
:101C9C0000093D0080B400AF024B1B681846BD46DE
:101CAC0080BC70470C00002080B500AFFFF7F2FF3E
:101CBC000246054B5B681B0A03F007030349CB5C28
:101CCC0022FA03F3184680BD00100240C833000806
:101CDC0080B500AFFFF7DEFF0246054B5B68DB0A01
:101CEC0003F007030349CB5C22FA03F3184680BDCB
:101CFC0000100240C833000880B485B000AF786093
:101D0C000A4B1B680A4AA2FB03235B0A7A6802FB94
:101D1C0003F3FB6000BFFB685A1EFA60002BF9D17D
:101D2C0000BF00BF1437BD4680BC70470C000020BC
:101D3C00D34D621080B582B000AF78607B68002B09
:101D4C0001D1012341E07B6893F83D30DBB2002BDD
:101D5C0006D17B68002283F83C207868FEF75EFF92
:101D6C007B68022283F83D207B681A687B68043309
:101D7C001946104600F07AFA7B68012283F8462057
:101D8C007B68012283F83E207B68012283F83F2088
:101D9C007B68012283F840207B68012283F8412074
:101DAC007B68012283F842207B68012283F8432060
:101DBC007B68012283F844207B68012283F845204C
:101DCC007B68012283F83D20002318460837BD4666
:101DDC0080BD000080B485B000AF78607B6893F85C
:101DEC003D30DBB2012B01D001233AE07B680222AB
:101DFC0083F83D207B681B68DA687B681B6842F0BF
:101E0C000102DA607B681B68184A93420ED07B682B
:101E1C001B68B3F1804F09D07B681B68144A93424E
:101E2C0004D07B681B68134A934211D17B681B68F2
:101E3C009B6803F00703FB60FB68062B10D07B68E4
:101E4C001B681A687B681B6842F001021A6007E085
:101E5C007B681B681A687B681B6842F001021A6079
:101E6C00002318461437BD4680BC7047002C014037
:101E7C00000400400008004080B582B000AF7860DC
:101E8C007B681B681B6903F00203022B22D17B6861
:101E9C001B68DB6803F00203022B1BD17B681B68F9
:101EAC006FF002021A617B6801221A777B681B684B
:101EBC009B6903F00303002B03D0786800F0BAF998
:101ECC0005E0786800F0ADF9786800F0BCF97B6843
:101EDC0000221A777B681B681B6903F00403042B30
:101EEC0022D17B681B68DB6803F00403042B1BD135
:101EFC007B681B686FF004021A617B6802221A77F8
:101F0C007B681B689B6903F44073002B03D07868D3
:101F1C0000F090F905E0786800F083F9786800F03B
:101F2C0092F97B6800221A777B681B681B6903F0A7
:101F3C000803082B22D17B681B68DB6803F00803BD
:101F4C00082B1BD17B681B686FF008021A617B6839
:101F5C0004221A777B681B68DB6903F00303002BF0
:101F6C0003D0786800F066F905E0786800F059F95C
:101F7C00786800F068F97B6800221A777B681B6828
:101F8C001B6903F01003102B22D17B681B68DB68E4
:101F9C0003F01003102B1BD17B681B686FF0100231
:101FAC001A617B6808221A777B681B68DB6903F46B
:101FBC004073002B03D0786800F03CF905E078689A
:101FCC0000F02FF9786800F03EF97B6800221A7750
:101FDC007B681B681B6903F00103012B0ED17B6826
:101FEC001B68DB6803F00103012B07D17B681B68BE
:101FFC006FF001021A61786800F00AF97B681B68BF
:10200C001B6903F08003802B0ED17B681B68DB6897
:10201C0003F08003802B07D17B681B686FF0800274
:10202C001A61786800F081FA7B681B681B6903F001
:10203C004003402B0ED17B681B68DB6803F0400328
:10204C00402B07D17B681B686FF040021A617868DF
:10205C0000F002F97B681B681B6903F02003202B3E
:10206C000ED17B681B68DB6803F02003202B07D1A3
:10207C007B681B686FF020021A61786800F04CFADC
:10208C0000BF0837BD4680BD80B584B000AF786016
:10209C0039607B6893F83C30012B01D10223B3E00B
:1020AC007B68012283F83C207B68022283F83D2068
:1020BC007B681B689B68FB60FB6823F07703FB6005
:1020CC00FB6823F47F43FB607B681B68FA689A60AB
:1020DC003B681B68B3F5005F3ED0B3F5005F00F2C0
:1020EC008780B3F5805F00F08580B3F5805F7FD883
:1020FC00702B1AD0702B7BD8602B50D0602B77D8DC
:10210C00502B3CD0502B73D8402B58D0402B6FD831
:10211C00302B64D0302B6BD8202B60D0202B67D881
:10212C00002B5CD0102B5AD062E07B6818683B689F
:10213C0099683B685A683B68DB6800F070F97B680B
:10214C001B689B68FB60FB6843F07703FB607B6854
:10215C001B68FA689A604EE07B6818683B6899685F
:10216C003B685A683B68DB6800F059F97B681B6870
:10217C009A687B681B6842F480429A603BE07B68FB
:10218C0018683B6859683B68DB681A4600F0D0F861
:10219C007B681B685021184600F027F92BE07B6800
:1021AC0018683B6859683B68DB681A4600F0EEF823
:1021BC007B681B686021184600F017F91BE07B68F0
:1021CC0018683B6859683B68DB681A4600F0B0F841
:1021DC007B681B684021184600F007F90BE07B6810
:1021EC001A683B681B681946104600F0FEF802E0BE
:1021FC0000BF00E000BF7B68012283F83D207B68B4
:10220C00002283F83C20002318461037BD4680BDC1
:10221C0080B483B000AF786000BF0C37BD4680BC83
:10222C00704780B483B000AF786000BF0C37BD46F8
:10223C0080BC704780B483B000AF786000BF0C37AF
:10224C00BD4680BC704780B483B000AF786000BFDF
:10225C000C37BD4680BC704780B483B000AF78604B
:10226C0000BF0C37BD4680BC7047000080B485B001
:10227C0000AF786039607B681B68FB607B68294A1B
:10228C0093420BD07B68B3F1804F07D07B68264A12
:10229C00934203D07B68254A934208D1FB6823F014
:1022AC007003FB603B685B68FA681343FB607B68F8
:1022BC001C4A93420BD07B68B3F1804F07D07B68EC
:1022CC00194A934203D07B68184A934208D1FB68A1
:1022DC0023F44073FB603B68DB68FA681343FB60D4
:1022EC00FB6823F080023B685B691343FB607B68EF
:1022FC00FA681A603B689A687B68DA623B681A680D
:10230C007B689A627B68074A934203D13B681A69DF
:10231C007B681A637B6801225A6100BF1437BD4683
:10232C0080BC7047002C01400004004000080040B5
:10233C0080B487B000AFF860B9607A60FB681B6A44
:10234C007B61FB681B6A23F00102FB681A62FB6865
:10235C009B693B613B6923F0F0033B617B681B018C
:10236C003A6913433B617B6923F00A037B617A6909
:10237C00BB6813437B61FB683A699A61FB687A69B5
:10238C001A6200BF1C37BD4680BC704780B487B052
:10239C0000AFF860B9607A60FB681B6A23F010022A
:1023AC00FB681A62FB689B697B61FB681B6A3B617B
:1023BC007B6923F470437B617B681B037A6913434D
:1023CC007B613B6923F0A0033B61BB681B013A694D
:1023DC0013433B61FB687A699A61FB683A691A623C
:1023EC0000BF1C37BD4680BC704780B485B000AFC1
:1023FC00786039607B689B68FB60FB6823F0700336
:10240C00FB603A68FB68134343F00703FB607B688F
:10241C00FA689A6000BF1437BD4680BC704780B420
:10242C0087B000AFF860B9607A603B60FB689B686E
:10243C007B617B6923F47F437B613B681A027B6879
:10244C001A43BB6813437A6913437B61FB687A694F
:10245C009A6000BF1C37BD4680BC704780B485B005
:10246C0000AF786039607B6893F83C30012B01D168
:10247C00022346E07B68012283F83C207B68022221
:10248C0083F83D207B681B685B68FB607B681B687E
:10249C009B68BB60FB6823F07003FB603B681B68A8
:1024AC00FA681343FB607B681B68FA685A607B68A8
:1024BC001B68164A93420ED07B681B68B3F1804FA1
:1024CC0009D07B681B68124A934204D07B681B6856
:1024DC00104A93420CD1BB6823F08003BB603B686D
:1024EC005B68BA681343BB607B681B68BA689A6008
:1024FC007B68012283F83D207B68002283F83C2016
:10250C00002318461437BD4680BC7047002C014090
:10251C00000400400008004080B483B000AF786035
:10252C0000BF0C37BD4680BC704780B483B000AF91
:10253C00786000BF0C37BD4680BC704780B582B058
:10254C0000AF78607B68002B01D101233FE07B68F2
:10255C0093F83D30DBB2002B06D17B68002283F868
:10256C003C207868FEF782FA7B68242283F83D20B1
:10257C007B681B68DA687B681B6822F40052DA609F
:10258C00786800F0F7FB7B681B681A697B681B682E
:10259C0022F490421A617B681B685A697B681B683D
:1025AC0022F02A025A617B681B68DA687B681B6818
:1025BC0042F40052DA607B6800221A647B682022A5
:1025CC0083F83D207B68202283F83E2000231846A8
:1025DC000837BD4680BD80B485B000AFF860B960E7
:1025EC001346FB80FB6893F83D30DBB2202B30D1D7
:1025FC00BB68002B02D0FB88002B01D1012329E002
:10260C00FB6893F83C30012B01D1022322E0FB68DC
:10261C00012283F83C20FB68BA681A62FB68FA88CE
:10262C009A84FB68FA88DA84FB6800221A64FB68D7
:10263C00212283F83D20FB68002283F83C20FB68B4
:10264C001B68DA68FB681B6842F08002DA600023C2
:10265C0000E0022318461437BD4680BC704780B595
:10266C0084B000AFF860B9601346FB80FB6893F848
:10267C003E30DBB2202B1DD1BB68002B02D0FB8877
:10268C00002B01D1012316E0FB6893F83C30012BA1
:10269C0001D102230FE0FB68012283F83C20FB6888
:1026AC0000221A63FB881A46B968F86800F0D8F95A
:1026BC00034600E0022318461037BD4680BD0000DB
:1026CC0080B58AB000AF78607B681B681B687B6242
:1026DC007B681B68DB683B627B681B685B69FB6122
:1026EC000023BB6100237B617B6A03F00F03BB619A
:1026FC00BB69002B0DD17B6A03F02003002B08D0A3
:10270C003B6A03F02003002B03D0786800F088FAB2
:10271C007BE1BB69002B00F0B180FB6903F0010386
:10272C00002B05D13B6A03F49073002B00F0A680BC
:10273C007B6A03F00103002B0AD03B6A03F480731D
:10274C00002B05D07B681B6C43F001027B681A647C
:10275C007B6A03F00403002B0AD0FB6903F001032E
:10276C00002B05D07B681B6C43F002027B681A645B
:10277C007B6A03F00203002B0AD0FB6903F0010310
:10278C00002B05D07B681B6C43F004027B681A6439
:10279C007B6A03F00803002B0FD03B6A03F0200385
:1027AC00002B04D1FB6903F00103002B05D07B68DF
:1027BC001B6C43F008027B681A647B681B6C002B53
:1027CC0000F01E817B6A03F02003002B07D03B6ACC
:1027DC0003F02003002B02D0786800F021FA7B680C
:1027EC001B685B6903F04003002B14BF012300231B
:1027FC00DBB27B617B681B6C03F00803002B02D1FE
:10280C007B69002B31D0786800F063F97B681B681A
:10281C005B6903F04003002B23D07B681B685A696B
:10282C007B681B6822F040025A617B689B6B002B13
:10283C0013D07B689B6B764A5A637B689B6B1846FC
:10284C00FEF74CFC0346002B16D07B689B6B5B6B36
:10285C007A68926B104698470EE0786800F0ECF8B6
:10286C000AE0786800F0E8F806E0786800F0E4F830
:10287C007B6800221A64C3E000BFC1E07B681B6B5D
:10288C00012B40F0A1807B6A03F01003002B00F0B9
:10289C009B803B6A03F01003002B00F09580002313
:1028AC00FB607B681B681B68FB607B681B685B6854
:1028BC00FB60FB687B681B685B6903F04003002BC3
:1028CC004ED07B689B6B1B685B683B823B8A002B02
:1028DC0000F098807B689B8D3A8A9A4280F09280B7
:1028EC007B683A8ADA857B689B6B9B69202B2BD0A3
:1028FC007B681B68DA687B681B6822F48072DA607C
:10290C007B681B685A697B681B6822F001025A615C
:10291C007B681B685A697B681B6822F040025A610D
:10292C007B68202283F83E207B6800221A637B6838
:10293C001B68DA687B681B6822F01002DA607B681F
:10294C009B6B1846FEF78FFB7B689A8D7B68DB8D43
:10295C009BB2D31A9BB21946786800F076F851E016
:10296C007B689A8D7B68DB8D9BB2D31A7B827B68EC
:10297C00DB8D9BB2002B47D07B8A002B44D07B682D
:10298C001B68DA687B681B6822F49072DA607B68DB
:10299C001B685A697B681B6822F001025A617B68CC
:1029AC00202283F83E207B6800221A637B681B6818
:1029BC00DA687B681B6822F01002DA607B8A1946A1
:1029CC00786800F042F81FE07B6A03F08003002B6C
:1029DC0008D03B6A03F08003002B03D0786800F02A
:1029EC00B8F812E07B6A03F04003002B0DD03B6A71
:1029FC0003F04003002B08D0786800F0F9F804E0ED
:102A0C0000BF02E000BF00E000BF2837BD4680BD1C
:102A1C00372B000880B483B000AF786000BF0C3750
:102A2C00BD4680BC704780B483B000AF786000BFF7
:102A3C000C37BD4680BC704780B483B000AF786063
:102A4C0000BF0C37BD4680BC704780B483B000AF6C
:102A5C0078600B467B8000BF0C37BD4680BC70474E
:102A6C0080B485B000AFF860B9601346FB80FB689A
:102A7C00BA689A62FB68FA889A85FB68FA88DA85E4
:102A8C00FB6800221A64FB68222283F83E20FB6854
:102A9C00002283F83C20FB681B68DA68FB681B6823
:102AAC0042F48072DA60FB681B685A69FB681B6829
:102ABC0042F001025A61FB681B68DA68FB681B680C
:102ACC0042F02002DA60002318461437BD4680BC61
:102ADC00704780B483B000AF78607B681B68DA689D
:102AEC007B681B6822F49072DA607B681B685A69F9
:102AFC007B681B6822F001025A617B681B6B012BFF
:102B0C0007D17B681B68DA687B681B6822F01002AF
:102B1C00DA607B68202283F83E207B6800221A63EF
:102B2C0000BF0C37BD4680BC704780B584B000AF89
:102B3C0078607B685B6AFB60FB680022DA85FB6867
:102B4C000022DA84F868FFF777FF00BF1037BD4624
:102B5C0080BD80B485B000AF78607B6893F83D3061
:102B6C00DBB2212B3ED17B689B68B3F5805F14D11F
:102B7C007B681B69002B10D17B681B6AFB60FB68B0
:102B8C001B881A467B681B68C2F308025A607B6874
:102B9C001B6A9A1C7B681A6208E07B681B6A591CCA
:102BAC007A6811621A787B681B685A607B68DB8CC8
:102BBC009BB2013B9BB27A681946D184002B0FD192
:102BCC007B681B68DA687B681B6822F08002DA601D
:102BDC007B681B68DA687B681B6842F04002DA602D
:102BEC00002300E0022318461437BD4680BC704712
:102BFC0080B582B000AF78607B681B68DA687B6850
:102C0C001B6822F04002DA607B68202283F83D20AA
:102C1C007868FFF7FFFE002318460837BD4680BDD5
:102C2C0080B586B000AF78607B6893F83E30DBB23D
:102C3C00222B40F099807B689B68B3F5805F17D19D
:102C4C007B681B69002B13D100237B617B689B6A1B
:102C5C003B617B681B685B689BB2C3F308039AB249
:102C6C003B691A807B689B6A9A1C7B689A6226E097
:102C7C007B689B6A7B6100233B617B689B68B3F537
:102C8C00805F07D07B689B68002B0AD17B681B692F
:102C9C00002B06D17B681B685B68DAB27B691A7003
:102CAC0008E07B681B685B68DBB203F07F03DAB279
:102CBC007B691A707B689B6A5A1C7B689A627B687A
:102CCC00DB8D9BB2013B9BB27A681946D185002BF8
:102CDC0048D17B681B68DA687B681B6822F020028D
:102CEC00DA607B681B68DA687B681B6822F4807288
:102CFC00DA607B681B685A697B681B6822F00102EA
:102D0C005A617B68202283F83E207B681B6B012B69
:102D1C0023D17B6800221A637B681B68DA687B68A6
:102D2C001B6822F01002DA607B681B681B6803F0DA
:102D3C001003102B0AD10023FB607B681B681B68F7
:102D4C00FB607B681B685B68FB60FB687B689B8D2A
:102D5C0019467868FFF779FE02E07868FFF763FEA2
:102D6C00002302E0002300E0022318461837BD467A
:102D7C0080BD000080B584B000AF78607B681B68B4
:102D8C001B6923F440517B68DA687B681B680A4333
:102D9C001A617B689A687B681B691A437B685B695C
:102DAC001343BB607B681B68DB6823F4B05323F0D0
:102DBC000C037A681268B9680B43D3607B681B6894
:102DCC005B6923F440717B689A697B681B680A43D2
:102DDC005A617B681B682C4A934203D1FEF778FF3B
:102DEC00F86002E0FEF760FFF860FA6813469B009B
:102DFC0013449A001A447B685B689B00B2FBF3F3A4
:102E0C00224AA2FB03235B091901FA6813469B00B3
:102E1C0013449A001A447B685B689B00B2FBF3F284
:102E2C001A4BA3FB02035B09642000FB03F3D31AC8
:102E3C001B013233154AA2FB03235B0903F0F00399
:102E4C001944FA6813469B0013449A001A447B6891
:102E5C005B689B00B2FBF3F20C4BA3FB02035B0918
:102E6C00642000FB03F3D31A1B013233074AA2FB85
:102E7C0003235B0903F00F027B681B680A449A600A
:102E8C0000BF1037BD4680BD003801401F85EB5197
:102E9C0080B487B000AFF860B9603B601346FB802C
:102EAC00FB68BA685A60FB68FA881A81FB683A6852
:102EBC00DA60FB68DB685A08FB681A61FB68002261
:102ECC001A70FB6801225A70FB6800229A70FB682A
:102EDC005B684D4A934206D14C4B9B694B4A43F07D
:102EEC00040393612EE0FB685B68494A934206D168
:102EFC00464B9B69454A43F00803936122E0FB680B
:102F0C005B68444A934206D1404B9B693F4A43F06D
:102F1C001003936116E0FB685B683F4A934206D14D
:102F2C003A4B9B69394A43F0200393610AE0FB68F2
:102F3C005B683A4A934205D1344B9B69334A43F060
:102F4C004003936100237B61FB681B897B827B6957
:102F5C000F2B0AD87B8A5B107B827B8A002B03D0D9
:102F6C007B6901337B61F2E700BF7B69072B1BD8C0
:102F7C00FB685B681A687B699B00082101FA03F304
:102F8C001946FB685B680A431A60FB685B681A6841
:102F9C007B699B00072101FA03F3DB431946FB68AD
:102FAC005B680A401A601CE0FB685B685A687B69C6
:102FBC00083B9B00082101FA03F31946FB685B6888
:102FCC000A435A60FB685B685A687B69083B9B0044
:102FDC00072101FA03F3DB431946FB685B680A40DF
:102FEC005A60FB685B68DA6801217B6901FA03F3BC
:102FFC001946FB685B680A43DA60FB6818461C37A5
:10300C00BD4680BC704700BF000801400010024064
:10301C00000C014000100140001401400018014058
:10302C0080B483B000AF78607B681B78DBB2002B78
:10303C000CBF01230023DBB219467B685B689B68DD
:10304C007A6812891340002B14BF01230023DBB2D2
:10305C0099420CBF01230023DBB2002B09D07B6803
:10306C001B69002B31D07B681B695A1E7B681A6167
:10307C002BE07B681B695A1C7B681A617B681A6998
:10308C007B68DB689A4220D37B681B78DBB203F049
:10309C000103002B0CBF01230023DBB21A467B6813
:1030AC001A707B6800221A617B681B78DBB2002BDC
:1030BC0014BF01230023DBB2002B03D07B68012259
:1030CC009A7002E07B6801225A7000BF0C37BD4633
:1030DC0080BC704780B483B000AF78607B685B784D
:1030EC00DBB2002B14BF01230023DBB2002B04D076
:1030FC007B6800225A70012300E0002318460C372D
:10310C00BD4680BC704780B483B000AF78607B68EC
:10311C009B78DBB2002B14BF01230023DBB2002B06
:10312C0004D07B6800229A70012300E0002318462B
:10313C000C37BD4680BC704780B483B000AF78605C
:10314C000B46FB707B68002283F849207B680022C9
:10315C0083F84A207B68002283F845207B68002294
:10316C0083F84B207B68012283F846207B68002281
:10317C001A657B68002283F84C207B6818460C3754
:10318C00BD4680BC704780B483B000AF78607B686C
:10319C0093F84A30002B01D0012300E0002318469D
:1031AC000C37BD4680BC704780B483B000AF7860EC
:1031BC007B6893F84930002B05D07B68002283F89C
:1031CC004920012300E0002318460C37BD4680BC83
:1031DC00704780B483B000AF78607B6893F8472069
:1031EC007B6893F848309A4201D0012300E0002319
:1031FC0018460C37BD4680BC704780B483B000AF16
:10320C0078607B6893F847207B6893F848309A4243
:10321C0001D1012300E0002318460C37BD4680BCC9
:10322C00704780B483B000AF78607B6893F84B3004
:10323C00002B01D0012300E0002318460C37BD46BB
:10324C0080BC704780B483B000AF78600B46FB70D5
:10325C00234B1B78FA789A4209D0224B1B78FA78C8
:10326C009A4204D0204B1B78FA789A4232D17B6870
:10327C001B6D0A2B1BD97B6800221A657B6893F89F
:10328C004A30002B04D17B68012283F84A2009E0E4
:10329C007B6893F84730FA789A4203D07B68012216
:1032AC0083F849207B68FA7883F8472012E07B6822
:1032BC0093F84C30FA789A4205D17B681B6D5A1CF6
:1032CC007B681A6506E07B68FA7883F84C207B688B
:1032DC0000221A6500BF0C37BD4680BC704700BF8A
:1032EC0015000020160000201700002080B483B0C9
:1032FC0000AF78607B6893F8473018460C37BD46B2
:10330C0080BC704780B483B000AF78600B46FB7014
:10331C007B68012283F84B207B68FA7883F848207D
:10332C0000BF0C37BD4680BC7047000070B500264E
:10333C000C4D0D4C641BA410A64209D100F022F8D0
:10334C0000260A4D0A4C641BA410A64205D170BD80
:10335C0055F8043B98470136EEE755F8043B98477F
:10336C000136F2E7D0330008D0330008D033000820
:10337C00D833000803460244934200D1704703F847
:10338C00011BF9E7F8B500BFF8BC08BC9E467047B6
:0C339C00F8B500BFF8BC08BC9E467047A6
:1033A80002030405060708090A0B0C0D0E0F10107E
:1033B80000000000000000000102030406070809DD
:0833C8000000000001020304F3
:0833D00031010008050A0008A4
:0433D8000D010008DB
:1033DC003700000038000000390000000024F40021
:0833EC00100000000137383920
:0400000508000D4999
:00000001FF
